{"abi":[{"type":"function","name":"balanceOf","inputs":[{"name":"user","type":"address","internalType":"address"}],"outputs":[{"name":"","type":"uint256","internalType":"uint256"}],"stateMutability":"view"},{"type":"function","name":"initialize","inputs":[{"name":"owner_","type":"address","internalType":"address"}],"outputs":[],"stateMutability":"nonpayable"},{"type":"function","name":"mint","inputs":[{"name":"to","type":"address","internalType":"address"},{"name":"amount","type":"uint256","internalType":"uint256"}],"outputs":[],"stateMutability":"nonpayable"},{"type":"function","name":"upgradeTo","inputs":[{"name":"newImplementation","type":"address","internalType":"address"}],"outputs":[],"stateMutability":"nonpayable"}],"bytecode":{"object":"0x608060405234801561001057600080fd5b5061037e806100206000396000f3fe608060405234801561001057600080fd5b506004361061004c5760003560e01c80633659cfe61461005157806340c10f191461006657806370a0823114610079578063c4d66de8146100d3575b600080fd5b61006461005f3660046102d5565b6100e6565b005b6100646100743660046102f7565b610112565b6100c16100873660046102d5565b6001600160a01b031660009081527f192a690e50e93051469e068c8585461ed5b81a8b3e83921789c670a4401cf080602052604090205490565b60405190815260200160405180910390f35b6100646100e13660046102d5565b6101ca565b6100ee610252565b7f360894a13ba1a3210667c828492db98dca3e2076cc3735a920a3ca505d382bbc55565b7f192a690e50e93051469e068c8585461ed5b81a8b3e83921789c670a4401cf07e80546001600160a01b0316331461017d5760405162461bcd60e51b81526020600482015260096024820152683737ba1037bbb732b960b91b60448201526064015b60405180910390fd5b818160010160008282546101919190610321565b90915550506001600160a01b0383166000908152600282016020526040812080548492906101c0908490610321565b9091555050505050565b7f192a690e50e93051469e068c8585461ed5b81a8b3e83921789c670a4401cf07e80546001600160a01b0316156102325760405162461bcd60e51b815260206004820152600c60248201526b185b1c9958591e481a5b9a5d60a21b6044820152606401610174565b80546001600160a01b0319166001600160a01b0392909216919091179055565b7f192a690e50e93051469e068c8585461ed5b81a8b3e83921789c670a4401cf07e546001600160a01b031633146102b75760405162461bcd60e51b81526020600482015260096024820152683737ba1037bbb732b960b91b6044820152606401610174565b565b80356001600160a01b03811681146102d057600080fd5b919050565b6000602082840312156102e757600080fd5b6102f0826102b9565b9392505050565b6000806040838503121561030a57600080fd5b610313836102b9565b946020939093013593505050565b8082018082111561034257634e487b7160e01b600052601160045260246000fd5b9291505056fea264697066735822122040e19e25d95a393b37cff77e269a6e239835b651f2b453fd3e42c4600c546d6f64736f6c63430008140033","linkReferences":{}},"methodIdentifiers":{"balanceOf(address)":"70a08231","initialize(address)":"c4d66de8","mint(address,uint256)":"40c10f19","upgradeTo(address)":"3659cfe6"},"storageLayout":{"storage":[],"types":{}},"id":20}