{"abi":[{"type":"function","name":"isAdmin","inputs":[{"name":"user","type":"address","internalType":"address"}],"outputs":[{"name":"","type":"bool","internalType":"bool"}],"stateMutability":"view"},{"type":"function","name":"setAdmin","inputs":[{"name":"user","type":"address","internalType":"address"},{"name":"ok","type":"bool","internalType":"bool"}],"outputs":[],"stateMutability":"nonpayable"}],"bytecode":{"object":"0x608060405234801561001057600080fd5b50610212806100206000396000f3fe608060405234801561001057600080fd5b50600436106100365760003560e01c806324d7806c1461003b5780634b0bddd21461009a575b600080fd5b61008661004936600461017e565b6001600160a01b031660009081527f95785eb3aed94b7a533f1c3a2fd7325959a9bbdfb38fcba78d3ba062d7645e14602052604090205460ff1690565b604051901515815260200160405180910390f35b6100ad6100a83660046101a0565b6100af565b005b7fc8fcad8db84d3cc18b4c41d551ea0ee66dd599cde068d998e57d5e09332c131d546001600160a01b031633146101185760405162461bcd60e51b81526020600482015260096024820152683737ba1037bbb732b960b91b604482015260640160405180910390fd5b6001600160a01b039190911660009081527f95785eb3aed94b7a533f1c3a2fd7325959a9bbdfb38fcba78d3ba062d7645e1460205260409020805460ff1916911515919091179055565b80356001600160a01b038116811461017957600080fd5b919050565b60006020828403121561019057600080fd5b61019982610162565b9392505050565b600080604083850312156101b357600080fd5b6101bc83610162565b9150602083013580151581146101d157600080fd5b80915050925092905056fea2646970667358221220da554f906daf0a565e12730c3dce3e3db49df43f98eebd55c5929138069e8a8764736f6c63430008140033","linkReferences":{}},"methodIdentifiers":{"isAdmin(address)":"24d7806c","setAdmin(address,bool)":"4b0bddd2"},"storageLayout":{"storage":[],"types":{}},"id":22}