{"abi":[{"type":"function","name":"getFacet","inputs":[{"name":"selector","type":"bytes4","internalType":"bytes4"}],"outputs":[{"name":"","type":"address","internalType":"address"}],"stateMutability":"view"},{"type":"function","name":"getOwner","inputs":[],"outputs":[{"name":"","type":"address","internalType":"address"}],"stateMutability":"view"},{"type":"function","name":"setFacet","inputs":[{"name":"selector","type":"bytes4","internalType":"bytes4"},{"name":"facet","type":"address","internalType":"address"}],"outputs":[],"stateMutability":"nonpayable"}],"bytecode":{"object":"0x608060405234801561001057600080fd5b5061027f806100206000396000f3fe608060405234801561001057600080fd5b50600436106100415760003560e01c8063112b6a67146100465780633dc23d0c146100b4578063893d20e8146100c9575b600080fd5b6100986100543660046101e4565b6001600160e01b03191660009081527fc8fcad8db84d3cc18b4c41d551ea0ee66dd599cde068d998e57d5e09332c131c60205260409020546001600160a01b031690565b6040516001600160a01b03909116815260200160405180910390f35b6100c76100c2366004610206565b6100d1565b005b61009861018f565b7fc8fcad8db84d3cc18b4c41d551ea0ee66dd599cde068d998e57d5e09332c131d546001600160a01b0316331461013a5760405162461bcd60e51b81526020600482015260096024820152683737ba1037bbb732b960b91b604482015260640160405180910390fd5b6001600160e01b0319821660009081527fc8fcad8db84d3cc18b4c41d551ea0ee66dd599cde068d998e57d5e09332c131c6020526040902080546001600160a01b0319166001600160a01b0383161790555050565b60006101c27fc8fcad8db84d3cc18b4c41d551ea0ee66dd599cde068d998e57d5e09332c131d546001600160a01b031690565b905090565b80356001600160e01b0319811681146101df57600080fd5b919050565b6000602082840312156101f657600080fd5b6101ff826101c7565b9392505050565b6000806040838503121561021957600080fd5b610222836101c7565b915060208301356001600160a01b038116811461023e57600080fd5b80915050925092905056fea26469706673582212203f83b34e1830af2c65b107f4c53ea738731d902c95b22e80f0933837ad073c5f64736f6c63430008140033","linkReferences":{}},"methodIdentifiers":{"getFacet(bytes4)":"112b6a67","getOwner()":"893d20e8","setFacet(bytes4,address)":"3dc23d0c"},"storageLayout":{"storage":[],"types":{}},"id":23}