{"abi":[{"type":"function","name":"balanceOf","inputs":[{"name":"user","type":"address","internalType":"address"}],"outputs":[{"name":"","type":"uint256","internalType":"uint256"}],"stateMutability":"view"},{"type":"function","name":"mint","inputs":[{"name":"to","type":"address","internalType":"address"},{"name":"amount","type":"uint256","internalType":"uint256"}],"outputs":[],"stateMutability":"nonpayable"}],"bytecode":{"object":"0x608060405234801561001057600080fd5b50610246806100206000396000f3fe608060405234801561001057600080fd5b50600436106100365760003560e01c806340c10f191461003b57806370a0823114610050575b600080fd5b61004e61004936600461019d565b6100aa565b005b61009861005e3660046101c7565b6001600160a01b031660009081527f47bb324945cb125366ea608c98b801618d914990c8a6856b45f489b0ef985fdd602052604090205490565b60405190815260200160405180910390f35b7fc8fcad8db84d3cc18b4c41d551ea0ee66dd599cde068d998e57d5e09332c131d546001600160a01b031633146101135760405162461bcd60e51b81526020600482015260096024820152683737ba1037bbb732b960b91b604482015260640160405180910390fd5b7f47bb324945cb125366ea608c98b801618d914990c8a6856b45f489b0ef985fdc8054829082906000906101489084906101e9565b90915550506001600160a01b0383166000908152600182016020526040812080548492906101779084906101e9565b9091555050505050565b80356001600160a01b038116811461019857600080fd5b919050565b600080604083850312156101b057600080fd5b6101b983610181565b946020939093013593505050565b6000602082840312156101d957600080fd5b6101e282610181565b9392505050565b8082018082111561020a57634e487b7160e01b600052601160045260246000fd5b9291505056fea2646970667358221220122f143598f0e7e1d3d4eea81c99f99e2732bb1ceb8a0afd7939abbc34d307f264736f6c63430008140033","linkReferences":{}},"methodIdentifiers":{"balanceOf(address)":"70a08231","mint(address,uint256)":"40c10f19"},"storageLayout":{"storage":[],"types":{}},"id":24}